{
  "_format": "hh-sol-artifact-1",
  "contractName": "CrowdFunding",
  "sourceName": "contracts/CrowdFunding.sol",
  "abi": [
    {
      "inputs": [
        {
          "internalType": "uint256",
          "name": "",
          "type": "uint256"
        }
      ],
      "name": "campaigns",
      "outputs": [
        {
          "internalType": "address",
          "name": "owner",
          "type": "address"
        },
        {
          "internalType": "string",
          "name": "title",
          "type": "string"
        },
        {
          "internalType": "string",
          "name": "description",
          "type": "string"
        },
        {
          "internalType": "uint256",
          "name": "target",
          "type": "uint256"
        },
        {
          "internalType": "uint256",
          "name": "deadline",
          "type": "uint256"
        },
        {
          "internalType": "uint256",
          "name": "amountCollected",
          "type": "uint256"
        },
        {
          "internalType": "string",
          "name": "image",
          "type": "string"
        }
      ],
      "stateMutability": "view",
      "type": "function"
    },
    {
      "inputs": [
        {
          "internalType": "address",
          "name": "_owner",
          "type": "address"
        },
        {
          "internalType": "string",
          "name": "_title",
          "type": "string"
        },
        {
          "internalType": "string",
          "name": "_description",
          "type": "string"
        },
        {
          "internalType": "uint256",
          "name": "_target",
          "type": "uint256"
        },
        {
          "internalType": "uint256",
          "name": "_deadline",
          "type": "uint256"
        },
        {
          "internalType": "string",
          "name": "_image",
          "type": "string"
        }
      ],
      "name": "createCampaign",
      "outputs": [
        {
          "internalType": "uint256",
          "name": "",
          "type": "uint256"
        }
      ],
      "stateMutability": "nonpayable",
      "type": "function"
    },
    {
      "inputs": [
        {
          "internalType": "uint256",
          "name": "_id",
          "type": "uint256"
        }
      ],
      "name": "donateToCampaign",
      "outputs": [],
      "stateMutability": "payable",
      "type": "function"
    },
    {
      "inputs": [],
      "name": "getCampaigns",
      "outputs": [
        {
          "components": [
            {
              "internalType": "address",
              "name": "owner",
              "type": "address"
            },
            {
              "internalType": "string",
              "name": "title",
              "type": "string"
            },
            {
              "internalType": "string",
              "name": "description",
              "type": "string"
            },
            {
              "internalType": "uint256",
              "name": "target",
              "type": "uint256"
            },
            {
              "internalType": "uint256",
              "name": "deadline",
              "type": "uint256"
            },
            {
              "internalType": "uint256",
              "name": "amountCollected",
              "type": "uint256"
            },
            {
              "internalType": "string",
              "name": "image",
              "type": "string"
            },
            {
              "internalType": "address[]",
              "name": "donators",
              "type": "address[]"
            },
            {
              "internalType": "uint256[]",
              "name": "donations",
              "type": "uint256[]"
            }
          ],
          "internalType": "struct CrowdFunding.Campaign[]",
          "name": "",
          "type": "tuple[]"
        }
      ],
      "stateMutability": "view",
      "type": "function"
    },
    {
      "inputs": [
        {
          "internalType": "uint256",
          "name": "_id",
          "type": "uint256"
        }
      ],
      "name": "getDonators",
      "outputs": [
        {
          "internalType": "address[]",
          "name": "",
          "type": "address[]"
        },
        {
          "internalType": "uint256[]",
          "name": "",
          "type": "uint256[]"
        }
      ],
      "stateMutability": "view",
      "type": "function"
    },
    {
      "inputs": [],
      "name": "numberOfCampaigns",
      "outputs": [
        {
          "internalType": "uint256",
          "name": "",
          "type": "uint256"
        }
      ],
      "stateMutability": "view",
      "type": "function"
    }
  ],
  "bytecode": "0x6080604052600060015534801561001557600080fd5b50611788806100256000396000f3fe6080604052600436106100555760003560e01c806307ca140d1461005a5780630fa91fa914610085578063141961bc146100c357806342a4fda8146101065780639943e3a114610122578063a6b036331461015f575b600080fd5b34801561006657600080fd5b5061006f61018a565b60405161007c9190610c20565b60405180910390f35b34801561009157600080fd5b506100ac60048036038101906100a79190610c7b565b610190565b6040516100ba929190610e56565b60405180910390f35b3480156100cf57600080fd5b506100ea60048036038101906100e59190610c7b565b6102a0565b6040516100fd9796959493929190610f35565b60405180910390f35b610120600480360381019061011b9190610c7b565b61049a565b005b34801561012e57600080fd5b506101496004803603810190610144919061111a565b6105fa565b6040516101569190610c20565b60405180910390f35b34801561016b57600080fd5b5061017461072c565b60405161018191906114c6565b60405180910390f35b60015481565b6060806000808481526020019081526020016000206007016000808581526020019081526020016000206008018180548060200260200160405190810160405280929190818152602001828054801561023e57602002820191906000526020600020905b8160009054906101000a900473ffffffffffffffffffffffffffffffffffffffff1673ffffffffffffffffffffffffffffffffffffffff16815260200190600101908083116101f4575b505050505091508080548060200260200160405190810160405280929190818152602001828054801561029057602002820191906000526020600020905b81548152602001906001019080831161027c575b5050505050905091509150915091565b60006020528060005260406000206000915090508060000160009054906101000a900473ffffffffffffffffffffffffffffffffffffffff16908060010180546102e990611517565b80601f016020809104026020016040519081016040528092919081815260200182805461031590611517565b80156103625780601f1061033757610100808354040283529160200191610362565b820191906000526020600020905b81548152906001019060200180831161034557829003601f168201915b50505050509080600201805461037790611517565b80601f01602080910402602001604051908101604052809291908181526020018280546103a390611517565b80156103f05780601f106103c5576101008083540402835291602001916103f0565b820191906000526020600020905b8154815290600101906020018083116103d357829003601f168201915b50505050509080600301549080600401549080600501549080600601805461041790611517565b80601f016020809104026020016040519081016040528092919081815260200182805461044390611517565b80156104905780601f1061046557610100808354040283529160200191610490565b820191906000526020600020905b81548152906001019060200180831161047357829003601f168201915b5050505050905087565b60003490506000806000848152602001908152602001600020905080600701339080600181540180825580915050600190039060005260206000200160009091909190916101000a81548173ffffffffffffffffffffffffffffffffffffffff021916908373ffffffffffffffffffffffffffffffffffffffff1602179055508060080182908060018154018082558091505060019003906000526020600020016000909190919091505560008160000160009054906101000a900473ffffffffffffffffffffffffffffffffffffffff1673ffffffffffffffffffffffffffffffffffffffff168360405161058f9061157a565b60006040518083038185875af1925050503d80600081146105cc576040519150601f19603f3d011682016040523d82523d6000602084013e6105d1565b606091505b5050905080156105f4578282600501546105eb91906115be565b82600501819055505b50505050565b60008060008060015481526020019081526020016000209050878160000160006101000a81548173ffffffffffffffffffffffffffffffffffffffff021916908373ffffffffffffffffffffffffffffffffffffffff1602179055508681600101908051906020019061066e929190610b02565b5085816002019080519060200190610687929190610b02565b50848160030181905550838160040181905550828160060190805190602001906106b2929190610b02565b50428160040154116106f9576040517f08c379a00000000000000000000000000000000000000000000000000000000081526004016106f090611686565b60405180910390fd5b6001600081548092919061070c906116a6565b91905055506001805461071f91906116ef565b9150509695505050505050565b6060600060015467ffffffffffffffff81111561074c5761074b610fef565b5b60405190808252806020026020018201604052801561078557816020015b610772610b88565b81526020019060019003908161076a5790505b50905060005b600154811015610afa576000806000838152602001908152602001600020905080604051806101200160405290816000820160009054906101000a900473ffffffffffffffffffffffffffffffffffffffff1673ffffffffffffffffffffffffffffffffffffffff1673ffffffffffffffffffffffffffffffffffffffff16815260200160018201805461081e90611517565b80601f016020809104026020016040519081016040528092919081815260200182805461084a90611517565b80156108975780601f1061086c57610100808354040283529160200191610897565b820191906000526020600020905b81548152906001019060200180831161087a57829003601f168201915b505050505081526020016002820180546108b090611517565b80601f01602080910402602001604051908101604052809291908181526020018280546108dc90611517565b80156109295780601f106108fe57610100808354040283529160200191610929565b820191906000526020600020905b81548152906001019060200180831161090c57829003601f168201915b5050505050815260200160038201548152602001600482015481526020016005820154815260200160068201805461096090611517565b80601f016020809104026020016040519081016040528092919081815260200182805461098c90611517565b80156109d95780601f106109ae576101008083540402835291602001916109d9565b820191906000526020600020905b8154815290600101906020018083116109bc57829003601f168201915b5050505050815260200160078201805480602002602001604051908101604052809291908181526020018280548015610a6757602002820191906000526020600020905b8160009054906101000a900473ffffffffffffffffffffffffffffffffffffffff1673ffffffffffffffffffffffffffffffffffffffff1681526020019060010190808311610a1d575b5050505050815260200160088201805480602002602001604051908101604052809291908181526020018280548015610abf57602002820191906000526020600020905b815481526020019060010190808311610aab575b505050505081525050838381518110610adb57610ada611723565b5b6020026020010181905250508080610af2906116a6565b91505061078b565b508091505090565b828054610b0e90611517565b90600052602060002090601f016020900481019282610b305760008555610b77565b82601f10610b4957805160ff1916838001178555610b77565b82800160010185558215610b77579182015b82811115610b76578251825591602001919060010190610b5b565b5b509050610b849190610bea565b5090565b604051806101200160405280600073ffffffffffffffffffffffffffffffffffffffff16815260200160608152602001606081526020016000815260200160008152602001600081526020016060815260200160608152602001606081525090565b5b80821115610c03576000816000905550600101610beb565b5090565b6000819050919050565b610c1a81610c07565b82525050565b6000602082019050610c356000830184610c11565b92915050565b6000604051905090565b600080fd5b600080fd5b610c5881610c07565b8114610c6357600080fd5b50565b600081359050610c7581610c4f565b92915050565b600060208284031215610c9157610c90610c45565b5b6000610c9f84828501610c66565b91505092915050565b600081519050919050565b600082825260208201905092915050565b6000819050602082019050919050565b600073ffffffffffffffffffffffffffffffffffffffff82169050919050565b6000610cff82610cd4565b9050919050565b610d0f81610cf4565b82525050565b6000610d218383610d06565b60208301905092915050565b6000602082019050919050565b6000610d4582610ca8565b610d4f8185610cb3565b9350610d5a83610cc4565b8060005b83811015610d8b578151610d728882610d15565b9750610d7d83610d2d565b925050600181019050610d5e565b5085935050505092915050565b600081519050919050565b600082825260208201905092915050565b6000819050602082019050919050565b610dcd81610c07565b82525050565b6000610ddf8383610dc4565b60208301905092915050565b6000602082019050919050565b6000610e0382610d98565b610e0d8185610da3565b9350610e1883610db4565b8060005b83811015610e49578151610e308882610dd3565b9750610e3b83610deb565b925050600181019050610e1c565b5085935050505092915050565b60006040820190508181036000830152610e708185610d3a565b90508181036020830152610e848184610df8565b90509392505050565b610e9681610cf4565b82525050565b600081519050919050565b600082825260208201905092915050565b60005b83811015610ed6578082015181840152602081019050610ebb565b83811115610ee5576000848401525b50505050565b6000601f19601f8301169050919050565b6000610f0782610e9c565b610f118185610ea7565b9350610f21818560208601610eb8565b610f2a81610eeb565b840191505092915050565b600060e082019050610f4a600083018a610e8d565b8181036020830152610f5c8189610efc565b90508181036040830152610f708188610efc565b9050610f7f6060830187610c11565b610f8c6080830186610c11565b610f9960a0830185610c11565b81810360c0830152610fab8184610efc565b905098975050505050505050565b610fc281610cf4565b8114610fcd57600080fd5b50565b600081359050610fdf81610fb9565b92915050565b600080fd5b600080fd5b7f4e487b7100000000000000000000000000000000000000000000000000000000600052604160045260246000fd5b61102782610eeb565b810181811067ffffffffffffffff8211171561104657611045610fef565b5b80604052505050565b6000611059610c3b565b9050611065828261101e565b919050565b600067ffffffffffffffff82111561108557611084610fef565b5b61108e82610eeb565b9050602081019050919050565b82818337600083830152505050565b60006110bd6110b88461106a565b61104f565b9050828152602081018484840111156110d9576110d8610fea565b5b6110e484828561109b565b509392505050565b600082601f83011261110157611100610fe5565b5b81356111118482602086016110aa565b91505092915050565b60008060008060008060c0878903121561113757611136610c45565b5b600061114589828a01610fd0565b965050602087013567ffffffffffffffff81111561116657611165610c4a565b5b61117289828a016110ec565b955050604087013567ffffffffffffffff81111561119357611192610c4a565b5b61119f89828a016110ec565b94505060606111b089828a01610c66565b93505060806111c189828a01610c66565b92505060a087013567ffffffffffffffff8111156111e2576111e1610c4a565b5b6111ee89828a016110ec565b9150509295509295509295565b600081519050919050565b600082825260208201905092915050565b6000819050602082019050919050565b600082825260208201905092915050565b600061124382610e9c565b61124d8185611227565b935061125d818560208601610eb8565b61126681610eeb565b840191505092915050565b600082825260208201905092915050565b600061128d82610ca8565b6112978185611271565b93506112a283610cc4565b8060005b838110156112d35781516112ba8882610d15565b97506112c583610d2d565b9250506001810190506112a6565b5085935050505092915050565b600082825260208201905092915050565b60006112fc82610d98565b61130681856112e0565b935061131183610db4565b8060005b838110156113425781516113298882610dd3565b975061133483610deb565b925050600181019050611315565b5085935050505092915050565b6000610120830160008301516113686000860182610d06565b50602083015184820360208601526113808282611238565b9150506040830151848203604086015261139a8282611238565b91505060608301516113af6060860182610dc4565b5060808301516113c26080860182610dc4565b5060a08301516113d560a0860182610dc4565b5060c083015184820360c08601526113ed8282611238565b91505060e083015184820360e08601526114078282611282565b91505061010083015184820361010086015261142382826112f1565b9150508091505092915050565b600061143c838361134f565b905092915050565b6000602082019050919050565b600061145c826111fb565b6114668185611206565b93508360208202850161147885611217565b8060005b858110156114b457848403895281516114958582611430565b94506114a083611444565b925060208a0199505060018101905061147c565b50829750879550505050505092915050565b600060208201905081810360008301526114e08184611451565b905092915050565b7f4e487b7100000000000000000000000000000000000000000000000000000000600052602260045260246000fd5b6000600282049050600182168061152f57607f821691505b60208210811415611543576115426114e8565b5b50919050565b600081905092915050565b50565b6000611564600083611549565b915061156f82611554565b600082019050919050565b600061158582611557565b9150819050919050565b7f4e487b7100000000000000000000000000000000000000000000000000000000600052601160045260246000fd5b60006115c982610c07565b91506115d483610c07565b9250827fffffffffffffffffffffffffffffffffffffffffffffffffffffffffffffffff038211156116095761160861158f565b5b828201905092915050565b7f54686520646561646c696e652073686f756c642062652061206461746520696e60008201527f2074686520667574757265000000000000000000000000000000000000000000602082015250565b6000611670602b83610ea7565b915061167b82611614565b604082019050919050565b6000602082019050818103600083015261169f81611663565b9050919050565b60006116b182610c07565b91507fffffffffffffffffffffffffffffffffffffffffffffffffffffffffffffffff8214156116e4576116e361158f565b5b600182019050919050565b60006116fa82610c07565b915061170583610c07565b9250828210156117185761171761158f565b5b828203905092915050565b7f4e487b7100000000000000000000000000000000000000000000000000000000600052603260045260246000fdfea26469706673582212206047fe67337b8ddfe1c48de516f1528ebcfb00b61561e0e0d68f0e370e18cfd864736f6c63430008090033",
  "linkReferences": {},
  "deployedLinkReferences": {}
}